:08000000803102288731E22F54
:100D9000093400346C347C08FA007B08F900080040
:100DA0004E010F0E890C013908007C084001AA0091
:100DB0007B08A90008007C084001AC007B08AB0060
:100DC00008004F0196019701980199019A019B0132
:100DD00008008631FC268631873178278631EC2E53
:100DE00080310228623051018D008F019101053060
:100DF00093009001920108008631E1268631873107
:100E0000392786318631F226863187311827863197
:100E100008004E018F1E0D2F0E2F092FF5014201E4
:100E20009D1C132F142F162F1D121D1619080800B4
:100E3000083042019F0090309D0004309E006730D2
:100E40009B009C010030FB000030FC008631CB266B
:100E500087310030FB000030FC008631DB26873113
:100E60000030FB000030FC008631D5268731F501CB
:100E7000080040019C019B01980199019A010F30E3
:100E80009600FF309200FF309300BF309400FF3097
:100E90009500FF307E01D9007F30CE00FF30C300C7
:100EA0000730E400FF30B800DA01E501C401B90100
:100EB000CF01E601BA01C501D001DB01FF30BB0063
:100EC000FF30C600FF30D100FF30DC000730E70004
:100ED000FF30BC00FF30C700FF30D200FF30DD0024
:100EE0000F30E8000F30A60017307D01CB0008005E
:100EF0008631D0268731003A03197F2F802FE12FCA
:100F0000873109278731FB007B08F400CB2F48305D
:100F10007406031D8C2F8D2F922F0130F2070030A5
:100F2000F33DE12FF201F301E12F50307406031D70
:100F30009A2F9B2F922F8D2F52307406031DA12FB5
:100F4000A22F922F8D2F6C307406031DA82FA92F6E
:100F5000922F8D2F7408FB007008203E86008701B9
:100F60007B0881000130F0070030F13D0930700648
:100F70007104031DBC2FBD2FE12F0330FC008A300C
:100F8000FB005630890BC22FFB0BC22FFC0BC22F6C
:100F9000F001F101922F7308003A0319D02FE12FCD
:100FA0007208003A0319872F013A0319952F033A63
:100FB00003199C2F013A0319A32F073A0319AA2FEB
:100FC000E12F08008631C8268731F6008631C92610
:100FD0008731F7008631CA268731F800F001F10128
:100FE000F201F301F401F501A001A101A201A301A5
:100FF000A401A501A601A701A80140018631E92E9F
:020000040001F9
:0A000E00EC3FFF3F9F3FFF3FFF3F25
:00000001FF
