:08000000803102288731E72F4F
:100AD6006C340934003443019A1208004E010F0E9B
:100AE600890C0139080071084001AE007008AD009C
:100AF600080071084001B2007008B10008007108D2
:100B06004001B0007008AF000800640080010131A8
:100B1600890B892D00344F0196019701980199019F
:100B26009A019B0108008531C52585318631A526A8
:100B36008531992D80310228623051018D008F0157
:100B4600910105309300900192010800F0007008B1
:100B5600430196004E010F1DB12DB22DAD2D0F1183
:100B66004301160808004E018F1EBA2DBB2DB62D67
:100B7600FC0142019D1CC02DC12DC32D1D121D1649
:100B86001908080085318E2585318531D5258531B1
:100B960086310C26853185319F2585318531EB25BA
:100BA6008531080009307D01C8000830C9001730BA
:100BB6007E01990018309D004030430199000230B3
:100BC6009A00013097004001931043019A120800E1
:100BD600083042019F0090309D0004309E0067302F
:100BE6009B009C010030F0000030F10085317C252F
:100BF60085310030F0000030F100853182258531E5
:100C06000030F0000030F100853176258531FC0199
:100C16000800013040019C0080309B00980199013A
:100C26000A309A000E309600FF309200F53093009D
:100C3600AF3094007F309500FF307E01D9007530CB
:100C4600CE00FC30C3000630E400FF30B800DA0105
:100C5600E501C401B901CF01E601BA01C501D00120
:100C6600DB01FF30BB00FF30C600FF30D100FF3094
:100C7600DC000730E700FF30BC00FF30C700FF3064
:100C8600D200FF30DD000F30E80008307D01C900DA
:100C960017307E01990018309B000F30A6000930EE
:100CA6007D01C8001730CB000800F30043019A1AF3
:100CB6005D2E5E2EA42E7308F000F101F035F10DC5
:100CC600F035F10D0130700784008830713D8500E4
:100CD600000899007308F000F101F035F10DF035C8
:100CE600F10D0030700784008830713D85000008E2
:100CF6009A009B017308F000F101F035F10DF03513
:100D0600F10D0230700784008830713D85000008BF
:100D160097007308F000F101F035F10DF035F10D93
:100D26000330700784008830713D85000008F200AA
:100D3600F20D400113087206FD3972069300430155
:100D46009A160800853171258631003A0319AC2EB2
:100D5600AD2E132F8531B6258631FA007A08FB00B1
:100D6600FC2E48307B06031DB92EBA2EBF2E01304D
:100D7600A2070030A33D132FA201A301132F503069
:100D86007B06031DC72EC82EBF2EBA2E52307B06F9
:100D9600031DCE2ECF2EBF2EBA2E6C307B06031D22
:100DA600D52ED62EBF2EBA2E7B08FA002008243E5A
:100DB600860087017A0881000130A0070030A13D36
:100DC600093020062104031DE92EEA2E132F1C10DC
:100DD6008230FA00DE30890BEE2EFA0BEE2E400141
:100DE6001C1424308731142786314001A001A1014B
:100DF600BF2E40012308003A0319022F132F2208A1
:100E0600003A0319B42E013A0319C22E033A031904
:100E1600C92E013A0319D02E073A0319D72E132FDC
:100E26000800F7000030863158268731F801F901AD
:100E3600922F3F30F40078087707F5007508860092
:100E4600870174088100C02F0630F4007808770700
:100E5600F50075088600870174088100C02F5B3095
:100E6600F40078087707F50075088600870174088E
:100E76008100C02F4F30F40078087707F500750819
:100E86008600870174088100C02F6630F400780858
:100E96007707F50075088600870174088100C02F62
:100EA6006D30F40078087707F5007508860087012D
:100EB60074088100C02F7C30F40078087707F500AD
:100EC60075088600870174088100C02F0730F4007A
:100ED60078087707F5007508860087017408810091
:100EE600C02F7F30F40078087707F5007508860074
:100EF600870174088100C02FE730F400780877076F
:100F0600F50075088600870174088100C02F7808EF
:100F16007707F4007408860087018101C02F7808DE
:100F26007707F4007408860087010108F500F601CA
:100F36007608003A0319A02F8A2F7508303A03194C
:100F46001C2F013A0319272F033A0319322F013AAE
:100F560003193D2F073A0319482F013A0319532F56
:100F6600033A03195E2F013A0319692F0F3A031941
:100F7600742F013A03197F2F8A2F78087707F40018
:100F860074088600870101088531A925873101305B
:100F9600F8070030F93D7908803AF4008030740291
:100FA600031DD72F09307802031CDA2FDB2F922F6F
:100FB60040019B130330890BDE2F000040019B1775
:100FC60085316E258731080085316B258731FD0017
:100FD60085316C258731B30085316D258731B400A5
:100FE600FB01FC0120308400003085000D30853186
:100FF6008825873140018531962D023440340134ED
:021006000034B4
:020000040001F9
:0A000E00EC3FFF3F9F3FFF3FFF3F25
:00000001FF
