:08000000803102288731E72F4F
:100C20006C34093400344301901208004E010F0E59
:100C3000890C0139080071084001AE007008AD0050
:100C4000080071084001B2007008B1000800710886
:100C50004001B0007008AF0008006400800101315D
:100C6000890B2E2E00344F019601970198019901AE
:100C70009A019B01080086316A26863187317427E4
:100C800086313E2E80310228623051018D008F0165
:100C9000910105309300900192010800F000700866
:100CA00043018C004E010F1C562E572E522E0F1052
:100CB00043010C0808004E018F1E5F2E602E5B2E34
:100CC000FB0142019D1C652E662E682E1D121D160D
:100CD0001908080086313326863186317A26863116
:100CE0008631DD26863186314426863186318E2650
:100CF0008631080013307D01C5001330C600153061
:100D00007E01A300403043018F000230900001308B
:100D10008D004001941143019012080008304201F7
:100D20009F0090309D0004309E0067309B009C0126
:100D30000030F0000030F10086312126863100308D
:100D4000F0000030F1008631272686310030F000B7
:100D50000030F10086311B268631FB010800F500CA
:100D60000030873125278631F601F70176087507AF
:100D7000F400740886008701010886314E2686310A
:100D80008230F400DE30890BC32EF40BC32E013009
:100D9000F6070030F73D7708803AF400803074029F
:100DA000031DD42E09307602031CD72ED82EB62E62
:100DB00000008631132686310800013040019C0076
:100DC0009B01980199019A010E309600FF30920024
:100DD000FF309300A7309400FF309500FF307E0174
:100DE000D9007730CE00FF30C3000630E400FF307A
:100DF000B800DA01E501C401B901CF01E601BA0189
:100E0000C501D001DB01FF30BB00FF30C600FF3061
:100E1000D100FF30DC000730E700FF30BC00FF30BE
:100E2000C700FF30D200FF30DD000F30E800133084
:100E30007D01C50015307E01A3000F30A6001330E0
:100E40007D01C6001730CB000800F3004301901A63
:100E50002A2F2B2F732F7308F000F101F035F10DBD
:100E6000F035F10D0130700784008830713D850048
:100E700000088F007308F000F101F035F10DF03536
:100E8000F10D0030700784008830713D8500000846
:100E9000900091017308F000F101F035F10DF0358B
:100EA000F10D0230700784008830713D8500000824
:100EB0008D007308F000F101F035F10DF035F10D02
:100EC0000330700784008830713D85000008F2000F
:100ED000F20DF20DF20D400114087206F739720698
:100EE0009400430190160800863116268731003A97
:100EF00003197B2F7C2FE62F86315B268731F80084
:100F00007808FA00CF2F48307A06031D882F892FE2
:100F10008E2F0130A2070030A33DE62FA201A301CE
:100F2000E62F50307A06031D962F972F8E2F892F8C
:100F300052307A06031D9D2F9E2F8E2F892F6C30E5
:100F40007A06031DA42FA52F8E2F892F7A08F8006B
:100F50002008243E86008701780881000130A00720
:100F60000030A13D093020062104031DB82FB92F00
:100F7000E62F1C100330F9008A30F8005630890B38
:100F8000BF2FF80BBF2FF90BBF2F40011C142430CB
:100F90008631AF2687314001A001A1018E2F40018B
:100FA0002308003A0319D52FE62F2208003A031927
:100FB000832F013A0319912F033A0319982F013A0D
:100FC00003199F2F073A0319A62FE62F0800863131
:100FD00010268731FC00863111268731B300863117
:100FE00012268731B400FA01FB0120308400003062
:100FF00085000D3086312D268731400186313B2E0C
:081000000234403401340034D5
:020000040001F9
:0A000E00EC3FFF3F9F3FFF3FFF3F25
:00000001FF
